:020000040800F2
:1000000000200020E90C00087103000873030008B9
:1000100000000000000000000000000000000000E0
:100020000000000000000000000000007503000850
:1000300000000000000000007703000879030008BA
:10004000390D0008390D0008390D0008390D000878
:10005000390D0008390D0008390D0008390D000868
:10006000390D0008390D0008390D0008390D000858
:10007000390D0008390D0008390D0008390D000848
:10008000390D0008390D000800000000390D000886
:10009000390D0008390D0008390D0008390D000828
:1000A000390D0008390D0008390D0008390D000818
:1000B000390D000800000000390D000800000000A4
:1000C000002243088B4274D303098B425FD3030A97
:1000D0008B4244D3030B8B4228D3030C8B420DD3AA
:1000E000FF22090212BA030C8B4202D31212090238
:1000F00065D0030B8B4219D300E0090AC30B8B4276
:1001000001D3CB03C01A5241830B8B4201D38B0323
:10011000C01A5241430B8B4201D34B03C01A5241C8
:10012000030B8B4201D30B03C01A5241C30A8B420B
:1001300001D3CB02C01A5241830A8B4201D38B02F6
:10014000C01A5241430A8B4201D34B02C01A52419A
:10015000030A8B4201D30B02C01A5241CDD2C3090C
:100160008B4201D3CB01C01A524183098B4201D388
:100170008B01C01A524143098B4201D34B01C01A73
:10018000524103098B4201D30B01C01A5241C308EB
:100190008B4201D3CB00C01A524183088B4201D35A
:1001A0008B00C01A524143088B4201D34B00C01A46
:1001B0005241411A00D20146524110467047FFE7B2
:1001C00001B5002000F006F802BDC0460029F7D0B6
:1001D00076E770477047C0460448054B10B5834228
:1001E00003D0044B002B00D0984710BD0C0000201A
:1001F0000C0000200000000006480749091A8B1077
:10020000C90FC91810B5491003D0044B002B00D0FA
:10021000984710BD0C0000200C00002000000000DA
:1002200010B5074C2378002B09D1FFF7D5FF054BFC
:10023000002B02D0044800E000BF0123237010BD52
:100240000C00002000000000940D0008054B10B5C4
:10025000002B03D00449054800E000BFFFF7CCFFA6
:1002600010BDC0460000000010000020940D0008E2
:10027000F0B589B01422002103A800F083FD184BCB
:100280005A69802189020A435A615A690A400192D7
:10029000019A5A69802109030A435A615B690B403C
:1002A0000293029BC027BF000E4D00223900280098
:1002B00000F0BEFC0126039690235B030493002408
:1002C0000594902003A9C00500F0EEFB0397049667
:1002D0000594069403A9280000F0E6FB09B0F0BDE0
:1002E000001002400008004872B6FEE700B591B069
:1002F0003022002104A800F045FD102200216846AC
:1003000000F040FD02230493012207920F3208926D
:100310000C93A0239B030E9304A800F049F8002837
:100320000ED107230093053B01930023029303930F
:100330000121684600F0C2FA002803D111B000BDC7
:10034000FFF7D2FFFFF7D0FF10B500F079FBFFF702
:10035000CDFFFFF78DFF80218900044800F06EFC7F
:10036000FA20400000F08EFBF5E7C0460008004888
:10037000FEE7FEE77047704710B500F071FB10BD57
:1003800082B00A4B996901221143996199690A4027
:100390000092009ADA69802149050A43DA61DB6933
:1003A0000B400193019B02B07047C0460010024011
:1003B00070B582B0041E00D12EE20368DB0726D59B
:1003C000AE4B5A680C231340042B18D0AB4B5A6821
:1003D0000C231340082B0ED06368012B3CD0002B5C
:1003E00051D1A64B1A68A6490A401A601A68A54955
:1003F0000A401A6036E0A14B5B68DB03ECD59F4BEB
:100400001B689B0303D56368002B00D107E22368B8
:100410009B0772D5994B5B680C221A425DD0974BB3
:100420005A680C231340082B53D0E368002B00D1EB
:1004300085E0924A136801210B43136000F01CFB16
:1004400005008E4B1B689B0770D400F015FB401B0A
:100450000228F6D90320E0E1884A116880235B0274
:100460000B4313606368002B25D000F005FB0500EB
:10047000824B1B689B03CAD400F0FEFA401B642821
:10048000F6D90320C9E1052B09D07C4B1A687C49B9
:100490000A401A601A687B490A401A60E2E7774B03
:1004A00019688022D2020A431A6019688022520217
:1004B0000A431A60D6E700F0DFFA05006F4B1B68AD
:1004C0009B03A4D500F0D8FA401B6428F6D903207A
:1004D000A3E16A4B5B68DB03A7D4684B1B689B07EF
:1004E00003D5E368012B00D09BE164490B68F82237
:1004F00093432269D20013430B6023681B0744D542
:10050000E369002B2ED05D4A536A01210B435362ED
:1005100000F0B2FA0500594B5B6A9B0735D400F036
:10052000ABFA401B0228F6D9032076E153490B6849
:10053000F82293432269D20013430B60DDE74F4A50
:10054000136801218B43136000F096FA05004B4BB2
:100550001B689B07D1D500F08FFA401B0228F6D903
:1005600003205AE1454A536A01218B43536200F04C
:1005700083FA0500414B5B6A9B0706D500F07CFAC5
:10058000401B0228F6D9032047E123685B0700D40B
:1005900080E03A4BDB69DB001DD4384BDA698021FF
:1005A00049050A43DA61DB690B400193019B012590
:1005B000354B1B68DB0510D5A368012B21D0002B20
:1005C00036D12E4B1A6A01218A431A621A6A033104
:1005D0008A431A621AE00025EAE72B4A1168802351
:1005E0005B000B43136000F047FA0600264B1B68C4
:1005F000DB05E1D400F040FA801B6428F6D9032023
:100600000BE11E4A136A01210B431362A368002BFE
:1006100024D000F031FA0600184B1B6A9B0737D430
:1006200000F02AFA801B194B9842F5D90320F4E018
:10063000052B09D0114B1A6A01218A431A621A6AE2
:1006400003318A431A62E1E70C4B1A6A04210A4318
:100650001A621A6A03390A431A62D7E700F00CFAE1
:100660000600064B1B6A9B0712D500F005FA801B9B
:10067000064B9842F5D90320CFE0C0460010024057
:10068000FFFFFEFFFFFFFBFF00700040881300002C
:10069000012D33D02368DB0610D56369012B33D0DD
:1006A000053351D1654A536B04218B435363536B1C
:1006B000F4318B43A169C9000B435363236A002BB8
:1006C00000D1B0E05D4A51680C220A40082A00D1EE
:1006D0008AE0022B4FD0594A136859490B401360E6
:1006E00000F0CAF90400554B1B689B017AD500F055
:1006F000C3F9001B0228F6D903208EE04F4AD369C4
:1007000050490B40D361C5E74C4B5A6B04210A4357
:100710005A635A6B03390A435A6300F0ADF9050076
:10072000464B5B6B9B0706D400F0A6F9401B0228E2
:10073000F6D9032071E041494B6BF8229343A2693B
:10074000D20013434B63B9E73C4B5A6B04210A4375
:100750005A635A6B03398A435A6300F08DF90500D6
:10076000364B5B6B9B07A9D500F086F9401B02282E
:10077000F6D9032051E0314A136831490B40136028
:1007800000F07AF905002D4B1B689B0106D500F09F
:1007900073F9401B0228F6D903203EE0274BDA6AA2
:1007A0000F218A43E16A0A43DA625A6826490A40FD
:1007B000A16A606A01430A435A60196880225204A0
:1007C0000A431A6000F058F904001C4B1B689B0197
:1007D00006D400F051F9001B0228F6D903201CE0D2
:1007E00000201AE0002018E0012B1ED0134B5A689D
:1007F000D86A80235B021340616A8B4217D10F23B2
:100800000340E16A8B4214D1F0239B031A40A36A90
:100810009A4210D1002000E0012002B070BD0120FA
:10082000FBE70120F9E70020F7E70120F5E70120C9
:10083000F3E70120F1E70120EFE7C0460010024096
:10084000FFFFFFFEFFFFFFEFFFFFC2FF30B589B0E4
:1008500004AA164B31CB31C21B6813606A46144B95
:1008600031CB31C21B681360124B5A680C23134002
:10087000082B02D0104809B030BD910C0733194045
:1008800004A8445C0B49C96A0B406946C95CD203A1
:1008900004D50948FFF714FC6043ECE76201121B22
:1008A00093019B1ADB001B191802E4E7AC0D00084A
:1008B000C00D00080010024000127A0070B504005C
:1008C0000D00002800D17EE0434B1A68012313403D
:1008D0008B420AD240490B68012293432B430B60A1
:1008E0000B681A40AA4200D06FE023689A070ED521
:1008F0005B0705D5394A5168E023DB000B435360A1
:10090000364A5368F0218B43A1680B435360236838
:10091000DB072DD56368012B1ED0022B22D02F4A76
:100920001268920753D52D494A6803208243134326
:100930004B6000F0A1F80600284B5B680C221A40BF
:1009400063689B009A4213D000F096F8801B244BFA
:100950009842F1D9032035E0204A12689203E2D48C
:1009600001202FE01D4A12689201DCD4012029E009
:10097000194B1A6801231340AB4209D916490B6879
:10098000012293432B430B600B681A40AA4220D1EB
:1009900023685B0706D5114A536812490B40E1688A
:1009A0000B435360FFF752FF0C4B5A6812090F2399
:1009B00013400D4AD35CD8400C4B1860002000F067
:1009C00017F8002070BD0120FCE70120FAE70120A4
:1009D000F8E70120F6E7C046002002400010024080
:1009E00088130000FFF8FFFFD40D00080800002066
:1009F00010B504000F4B1978FA208000FFF760FB58
:100A000001000D4B1868FFF75BFB00F04FF9002861
:100A10000DD1032C01D901200AE001300022210070
:100A2000404200F013F9054B1C60002000E001205B
:100A300010BDC04600000020080000200400002077
:100A400010B5064A136810210B4313600020FFF70E
:100A5000CFFFFFF795FC002010BDC04600200240EC
:100A6000034A1168034B1B785B1813607047C0463C
:100A70002800002000000020014B18687047C04685
:100A80002800002070B50400FFF7F6FF0500631C86
:100A900002D0044B1B78E418FFF7EEFF401BA04286
:100AA000FAD370BD00000020F0B583B0002356E0FB
:100AB00086685F000324BC40A643CC68BC40344336
:100AC0008460446894434E683609012232409A405B
:100AD0002243426053E0DE080836B600375805323C
:100AE0001A4092000F249440A7430C6994402200BE
:100AF0003A43325056E0032600E00026A640340078
:100B00003C4302329200444E9451444A1768EA43EF
:100B10003E00AE434C68E40301D53E002E433F4CFB
:100B2000266067683E0016404C68A40301D53E006D
:100B30002E433A4C6660A7683E0016404C68E402BB
:100B400001D53E002E43354CA660E66832404C6825
:100B5000A40201D52A003243304CE26001330C6814
:100B60002200DA4056D001229A4025001540144256
:100B7000F4D04E6803243440013C012C98D94C68D1
:100B800003222240032A08D0C4685E000322B24038
:100B900094438A68B2402243C2604C6803222240D8
:100BA000022A98D004685E0003221700B740BC43B5
:100BB0004F683A40B240224302604C68C022920221
:100BC0001442CBD0164CA66901221643A661A46933
:100BD00022400192019A9A08941CA4000E4EA75933
:100BE00003241C40A4000F26A640B7439026F60518
:100BF000B04282D00B4EB04208D00B4EB04207D06C
:100C00000A4EB04200D176E7052677E7012675E760
:100C1000022673E703B0F0BD00000140000401406C
:100C2000001002400004004800080048000C004882
:100C3000002A01D0816170478162FCE7426913009C
:100C40000B401B0491430B438361704770B5002830
:100C500011DB8308134DC0339B005C590322104005
:100C6000C000FC3216008640B44389010A4082402D
:100C700022435A5170BD0F230340083B9B080633A3
:100C80009B00094A944663445C6803221040C000FC
:100C9000FC3215008540AC4389010A408240224362
:100CA0005A60E7E700E100E000ED00E00138802352
:100CB0005B0498420FD2094A50600948036A1B023C
:100CC0001B0AC02109060B4303620023936007330C
:100CD0001360002070470120FCE7C04610E000E0F0
:100CE00000ED00E0704700000D4885460D480E49B4
:100CF0000E4A002302E0D458C4500433C4188C4276
:100D0000F9D30B4A0B4C002301E013600432A242DA
:100D1000FBD3FFF7E7FF00F011F8FFF715FBFEE745
:100D200000200020000000200C000020EC0D000836
:100D30000C0000202C000020FEE7000070B500260B
:100D40000C4C0D4D641BA410A64209D1002600F0E6
:100D500021F80A4C0A4D641BA410A64205D170BDAF
:100D6000B300EB5898470136EEE7B300EB589847CD
:100D70000136F2E7E40D0008E40D0008E80D000874
:100D8000E40D000803008218934200D170471970E7
:100D90000133F9E7F8B5C046F8BC08BC9E46704779
:0C0DA000F8B5C046F8BC08BC9E46704781
:100DAC0002030405060708090A0B0C0D0E0F1010A0
:100DBC00000000000102030405060708090A0B0CD9
:100DCC000D0E0F10000000000000000000000000DD
:080DDC000102030406070809E7
:040DE4004D020008B4
:040DE80021020008DC
:0C0DEC00010000000400000000127A006A
:0400000508000CE9FA
:00000001FF
